{"contracts/ico.sol":{"ICO":{"abi":[{"inputs":[],"stateMutability":"nonpayable","type":"constructor"},{"anonymous":false,"inputs":[{"indexed":true,"internalType":"address","name":"_from","type":"address"},{"indexed":true,"internalType":"address","name":"_to","type":"address"},{"indexed":false,"internalType":"uint256","name":"_amount","type":"uint256"}],"name":"Sell","type":"event"},{"inputs":[],"name":"Buy","outputs":[{"internalType":"uint256","name":"","type":"uint256"}],"stateMutability":"payable","type":"function"},{"inputs":[],"name":"amount","outputs":[{"internalType":"uint256","name":"","type":"uint256"}],"stateMutability":"view","type":"function"},{"inputs":[],"name":"getPrice","outputs":[{"internalType":"uint256","name":"","type":"uint256"}],"stateMutability":"view","type":"function"},{"inputs":[],"name":"owner","outputs":[{"internalType":"address","name":"","type":"address"}],"stateMutability":"view","type":"function"},{"inputs":[],"name":"tokenCont","outputs":[{"internalType":"contract Token","name":"","type":"address"}],"stateMutability":"view","type":"function"},{"inputs":[],"name":"tokenPrice","outputs":[{"internalType":"uint256","name":"","type":"uint256"}],"stateMutability":"view","type":"function"},{"inputs":[],"name":"tokenSold","outputs":[{"internalType":"uint256","name":"","type":"uint256"}],"stateMutability":"view","type":"function"}],"evm":{"bytecode":{"linkReferences":{},"object":"608060405262000014620000d360201b60201c565b655af3107a4000620000279190620001a8565b6004553480156200003757600080fd5b50336000806101000a81548173ffffffffffffffffffffffffffffffffffffffff021916908373ffffffffffffffffffffffffffffffffffffffff1602179055507385314b49a5c2e9a08e0c7f8986d5fc39a7f9928a600160006101000a81548173ffffffffffffffffffffffffffffffffffffffff021916908373ffffffffffffffffffffffffffffffffffffffff16021790555062000333565b600080732514895c72f50d8bd4b4f9b1110f0d6bd2c97526905060008173ffffffffffffffffffffffffffffffffffffffff1663feaf968c6040518163ffffffff1660e01b815260040160a060405180830381865afa1580156200013b573d6000803e3d6000fd5b505050506040513d601f19601f82011682018060405250810190620001619190620002ab565b505050915050809250505090565b6000819050919050565b7f4e487b7100000000000000000000000000000000000000000000000000000000600052601160045260246000fd5b6000620001b5826200016f565b9150620001c2836200016f565b9250828202620001d2816200016f565b91508282048414831517620001ec57620001eb62000179565b5b5092915050565b600080fd5b600069ffffffffffffffffffff82169050919050565b6200021981620001f8565b81146200022557600080fd5b50565b60008151905062000239816200020e565b92915050565b6000819050919050565b62000254816200023f565b81146200026057600080fd5b50565b600081519050620002748162000249565b92915050565b62000285816200016f565b81146200029157600080fd5b50565b600081519050620002a5816200027a565b92915050565b600080600080600060a08688031215620002ca57620002c9620001f3565b5b6000620002da8882890162000228565b9550506020620002ed8882890162000263565b9450506040620003008882890162000294565b9350506060620003138882890162000294565b9250506080620003268882890162000228565b9150509295509295909350565b610dd780620003436000396000f3fe6080604052600436106100705760003560e01c8063974c86b51161004e578063974c86b5146100f657806398d5fdca14610114578063aa8c217c1461013f578063f26ea8c91461016a57610070565b8063519ee19e146100755780637ff9b596146100a05780638da5cb5b146100cb575b600080fd5b34801561008157600080fd5b5061008a610195565b604051610097919061081a565b60405180910390f35b3480156100ac57600080fd5b506100b561019b565b6040516100c2919061081a565b60405180910390f35b3480156100d757600080fd5b506100e06101a1565b6040516100ed9190610876565b60405180910390f35b6100fe6101c5565b60405161010b919061081a565b60405180910390f35b34801561012057600080fd5b5061012961073c565b604051610136919061081a565b60405180910390f35b34801561014b57600080fd5b506101546107d5565b604051610161919061081a565b60405180910390f35b34801561017657600080fd5b5061017f6107db565b60405161018c91906108f0565b60405180910390f35b60035481565b60045481565b60008054906101000a900473ffffffffffffffffffffffffffffffffffffffff1681565b60006003546064603c600160009054906101000a900473ffffffffffffffffffffffffffffffffffffffff1673ffffffffffffffffffffffffffffffffffffffff166318160ddd6040518163ffffffff1660e01b8152600401602060405180830381865afa15801561023b573d6000803e3d6000fd5b505050506040513d601f19601f8201168201806040525081019061025f919061093c565b6102699190610998565b6102739190610a09565b10156102b4576040517f08c379a00000000000000000000000000000000000000000000000000000000081526004016102ab90610a97565b60405180910390fd5b600034116102f7576040517f08c379a00000000000000000000000000000000000000000000000000000000081526004016102ee90610b03565b60405180910390fd5b60045461030261073c565b3461030d9190610998565b6103179190610a09565b600281905550600254600160009054906101000a900473ffffffffffffffffffffffffffffffffffffffff1673ffffffffffffffffffffffffffffffffffffffff166370a0823160008054906101000a900473ffffffffffffffffffffffffffffffffffffffff166040518263ffffffff1660e01b815260040161039b9190610876565b602060405180830381865afa1580156103b8573d6000803e3d6000fd5b505050506040513d601f19601f820116820180604052508101906103dc919061093c565b101561041d576040517f08c379a000000000000000000000000000000000000000000000000000000000815260040161041490610b95565b60405180910390fd5b600160009054906101000a900473ffffffffffffffffffffffffffffffffffffffff1673ffffffffffffffffffffffffffffffffffffffff1663095ea7b3306064603c600160009054906101000a900473ffffffffffffffffffffffffffffffffffffffff1673ffffffffffffffffffffffffffffffffffffffff166318160ddd6040518163ffffffff1660e01b8152600401602060405180830381865afa1580156104cd573d6000803e3d6000fd5b505050506040513d601f19601f820116820180604052508101906104f1919061093c565b6104fb9190610998565b6105059190610a09565b6040518363ffffffff1660e01b8152600401610522929190610bb5565b6020604051808303816000875af1158015610541573d6000803e3d6000fd5b505050506040513d601f19601f820116820180604052508101906105659190610c16565b50600160009054906101000a900473ffffffffffffffffffffffffffffffffffffffff1673ffffffffffffffffffffffffffffffffffffffff166323b872dd60008054906101000a900473ffffffffffffffffffffffffffffffffffffffff16336002546040518463ffffffff1660e01b81526004016105e793929190610c43565b6020604051808303816000875af1158015610606573d6000803e3d6000fd5b505050506040513d601f19601f8201168201806040525081019061062a9190610c16565b503373ffffffffffffffffffffffffffffffffffffffff1660008054906101000a900473ffffffffffffffffffffffffffffffffffffffff1673ffffffffffffffffffffffffffffffffffffffff167fae98fdb7f4bc601d31354dd8c8ba584bf892418c4df67aba01011867bd88ea276002546040516106aa919061081a565b60405180910390a3600254600360008282546106c69190610c7a565b9250508190555060008054906101000a900473ffffffffffffffffffffffffffffffffffffffff1673ffffffffffffffffffffffffffffffffffffffff166108fc349081150290604051600060405180830381858888f19350505050158015610733573d6000803e3d6000fd5b50600254905090565b600080732514895c72f50d8bd4b4f9b1110f0d6bd2c97526905060008173ffffffffffffffffffffffffffffffffffffffff1663feaf968c6040518163ffffffff1660e01b815260040160a060405180830381865afa1580156107a3573d6000803e3d6000fd5b505050506040513d601f19601f820116820180604052508101906107c79190610d26565b505050915050809250505090565b60025481565b600160009054906101000a900473ffffffffffffffffffffffffffffffffffffffff1681565b6000819050919050565b61081481610801565b82525050565b600060208201905061082f600083018461080b565b92915050565b600073ffffffffffffffffffffffffffffffffffffffff82169050919050565b600061086082610835565b9050919050565b61087081610855565b82525050565b600060208201905061088b6000830184610867565b92915050565b6000819050919050565b60006108b66108b16108ac84610835565b610891565b610835565b9050919050565b60006108c88261089b565b9050919050565b60006108da826108bd565b9050919050565b6108ea816108cf565b82525050565b600060208201905061090560008301846108e1565b92915050565b600080fd5b61091981610801565b811461092457600080fd5b50565b60008151905061093681610910565b92915050565b6000602082840312156109525761095161090b565b5b600061096084828501610927565b91505092915050565b7f4e487b7100000000000000000000000000000000000000000000000000000000600052601160045260246000fd5b60006109a382610801565b91506109ae83610801565b92508282026109bc81610801565b915082820484148315176109d3576109d2610969565b5b5092915050565b7f4e487b7100000000000000000000000000000000000000000000000000000000600052601260045260246000fd5b6000610a1482610801565b9150610a1f83610801565b925082610a2f57610a2e6109da565b5b828204905092915050565b600082825260208201905092915050565b7f7468652070726573616c652068617320656e6465640000000000000000000000600082015250565b6000610a81601583610a3a565b9150610a8c82610a4b565b602082019050919050565b60006020820190508181036000830152610ab081610a74565b9050919050565b7f506c6561736520656e7465722061206e6f6e207a65726f20616d6f756e740000600082015250565b6000610aed601e83610a3a565b9150610af882610ab7565b602082019050919050565b60006020820190508181036000830152610b1c81610ae0565b9050919050565b7f42616c616e636520696e20746f6b656e2077697468206f776e6572206973206e60008201527f6f7420656e6f7567680000000000000000000000000000000000000000000000602082015250565b6000610b7f602983610a3a565b9150610b8a82610b23565b604082019050919050565b60006020820190508181036000830152610bae81610b72565b9050919050565b6000604082019050610bca6000830185610867565b610bd7602083018461080b565b9392505050565b60008115159050919050565b610bf381610bde565b8114610bfe57600080fd5b50565b600081519050610c1081610bea565b92915050565b600060208284031215610c2c57610c2b61090b565b5b6000610c3a84828501610c01565b91505092915050565b6000606082019050610c586000830186610867565b610c656020830185610867565b610c72604083018461080b565b949350505050565b6000610c8582610801565b9150610c9083610801565b9250828201905080821115610ca857610ca7610969565b5b92915050565b600069ffffffffffffffffffff82169050919050565b610ccd81610cae565b8114610cd857600080fd5b50565b600081519050610cea81610cc4565b92915050565b6000819050919050565b610d0381610cf0565b8114610d0e57600080fd5b50565b600081519050610d2081610cfa565b92915050565b600080600080600060a08688031215610d4257610d4161090b565b5b6000610d5088828901610cdb565b9550506020610d6188828901610d11565b9450506040610d7288828901610927565b9350506060610d8388828901610927565b9250506080610d9488828901610cdb565b915050929550929590935056fea264697066735822122013b89da3093fe30bbabbf74221de22c674f04160adb01f2c787117c4ac32051e64736f6c63430008110033","opcodes":"PUSH1 0x80 PUSH1 0x40 MSTORE PUSH3 0x14 PUSH3 0xD3 PUSH1 0x20 SHL PUSH1 0x20 SHR JUMP JUMPDEST PUSH6 0x5AF3107A4000 PUSH3 0x27 SWAP2 SWAP1 PUSH3 0x1A8 JUMP JUMPDEST PUSH1 0x4 SSTORE CALLVALUE DUP1 ISZERO PUSH3 0x37 JUMPI PUSH1 0x0 DUP1 REVERT JUMPDEST POP CALLER PUSH1 0x0 DUP1 PUSH2 0x100 EXP DUP2 SLOAD DUP2 PUSH20 0xFFFFFFFFFFFFFFFFFFFFFFFFFFFFFFFFFFFFFFFF MUL NOT AND SWAP1 DUP4 PUSH20 0xFFFFFFFFFFFFFFFFFFFFFFFFFFFFFFFFFFFFFFFF AND MUL OR SWAP1 SSTORE POP PUSH20 0x85314B49A5C2E9A08E0C7F8986D5FC39A7F9928A PUSH1 0x1 PUSH1 0x0 PUSH2 0x100 EXP DUP2 SLOAD DUP2 PUSH20 0xFFFFFFFFFFFFFFFFFFFFFFFFFFFFFFFFFFFFFFFF MUL NOT AND SWAP1 DUP4 PUSH20 0xFFFFFFFFFFFFFFFFFFFFFFFFFFFFFFFFFFFFFFFF AND MUL OR SWAP1 SSTORE POP PUSH3 0x333 JUMP JUMPDEST PUSH1 0x0 DUP1 PUSH20 0x2514895C72F50D8BD4B4F9B1110F0D6BD2C97526 SWAP1 POP PUSH1 0x0 DUP2 PUSH20 0xFFFFFFFFFFFFFFFFFFFFFFFFFFFFFFFFFFFFFFFF AND PUSH4 0xFEAF968C PUSH1 0x40 MLOAD DUP2 PUSH4 0xFFFFFFFF AND PUSH1 0xE0 SHL DUP2 MSTORE PUSH1 0x4 ADD PUSH1 0xA0 PUSH1 0x40 MLOAD DUP1 DUP4 SUB DUP2 DUP7 GAS STATICCALL ISZERO DUP1 ISZERO PUSH3 0x13B JUMPI RETURNDATASIZE PUSH1 0x0 DUP1 RETURNDATACOPY RETURNDATASIZE PUSH1 0x0 REVERT JUMPDEST POP POP POP POP PUSH1 0x40 MLOAD RETURNDATASIZE PUSH1 0x1F NOT PUSH1 0x1F DUP3 ADD AND DUP3 ADD DUP1 PUSH1 0x40 MSTORE POP DUP2 ADD SWAP1 PUSH3 0x161 SWAP2 SWAP1 PUSH3 0x2AB JUMP JUMPDEST POP POP POP SWAP2 POP POP DUP1 SWAP3 POP POP POP SWAP1 JUMP JUMPDEST PUSH1 0x0 DUP2 SWAP1 POP SWAP2 SWAP1 POP JUMP JUMPDEST PUSH32 0x4E487B7100000000000000000000000000000000000000000000000000000000 PUSH1 0x0 MSTORE PUSH1 0x11 PUSH1 0x4 MSTORE PUSH1 0x24 PUSH1 0x0 REVERT JUMPDEST PUSH1 0x0 PUSH3 0x1B5 DUP3 PUSH3 0x16F JUMP JUMPDEST SWAP2 POP PUSH3 0x1C2 DUP4 PUSH3 0x16F JUMP JUMPDEST SWAP3 POP DUP3 DUP3 MUL PUSH3 0x1D2 DUP2 PUSH3 0x16F JUMP JUMPDEST SWAP2 POP DUP3 DUP3 DIV DUP5 EQ DUP4 ISZERO OR PUSH3 0x1EC JUMPI PUSH3 0x1EB PUSH3 0x179 JUMP JUMPDEST JUMPDEST POP SWAP3 SWAP2 POP POP JUMP JUMPDEST PUSH1 0x0 DUP1 REVERT JUMPDEST PUSH1 0x0 PUSH10 0xFFFFFFFFFFFFFFFFFFFF DUP3 AND SWAP1 POP SWAP2 SWAP1 POP JUMP JUMPDEST PUSH3 0x219 DUP2 PUSH3 0x1F8 JUMP JUMPDEST DUP2 EQ PUSH3 0x225 JUMPI PUSH1 0x0 DUP1 REVERT JUMPDEST POP JUMP JUMPDEST PUSH1 0x0 DUP2 MLOAD SWAP1 POP PUSH3 0x239 DUP2 PUSH3 0x20E JUMP JUMPDEST SWAP3 SWAP2 POP POP JUMP JUMPDEST PUSH1 0x0 DUP2 SWAP1 POP SWAP2 SWAP1 POP JUMP JUMPDEST PUSH3 0x254 DUP2 PUSH3 0x23F JUMP JUMPDEST DUP2 EQ PUSH3 0x260 JUMPI PUSH1 0x0 DUP1 REVERT JUMPDEST POP JUMP JUMPDEST PUSH1 0x0 DUP2 MLOAD SWAP1 POP PUSH3 0x274 DUP2 PUSH3 0x249 JUMP JUMPDEST SWAP3 SWAP2 POP POP JUMP JUMPDEST PUSH3 0x285 DUP2 PUSH3 0x16F JUMP JUMPDEST DUP2 EQ PUSH3 0x291 JUMPI PUSH1 0x0 DUP1 REVERT JUMPDEST POP JUMP JUMPDEST PUSH1 0x0 DUP2 MLOAD SWAP1 POP PUSH3 0x2A5 DUP2 PUSH3 0x27A JUMP JUMPDEST SWAP3 SWAP2 POP POP JUMP JUMPDEST PUSH1 0x0 DUP1 PUSH1 0x0 DUP1 PUSH1 0x0 PUSH1 0xA0 DUP7 DUP9 SUB SLT ISZERO PUSH3 0x2CA JUMPI PUSH3 0x2C9 PUSH3 0x1F3 JUMP JUMPDEST JUMPDEST PUSH1 0x0 PUSH3 0x2DA DUP9 DUP3 DUP10 ADD PUSH3 0x228 JUMP JUMPDEST SWAP6 POP POP PUSH1 0x20 PUSH3 0x2ED DUP9 DUP3 DUP10 ADD PUSH3 0x263 JUMP JUMPDEST SWAP5 POP POP PUSH1 0x40 PUSH3 0x300 DUP9 DUP3 DUP10 ADD PUSH3 0x294 JUMP JUMPDEST SWAP4 POP POP PUSH1 0x60 PUSH3 0x313 DUP9 DUP3 DUP10 ADD PUSH3 0x294 JUMP JUMPDEST SWAP3 POP POP PUSH1 0x80 PUSH3 0x326 DUP9 DUP3 DUP10 ADD PUSH3 0x228 JUMP JUMPDEST SWAP2 POP POP SWAP3 SWAP6 POP SWAP3 SWAP6 SWAP1 SWAP4 POP JUMP JUMPDEST PUSH2 0xDD7 DUP1 PUSH3 0x343 PUSH1 0x0 CODECOPY PUSH1 0x0 RETURN INVALID PUSH1 0x80 PUSH1 0x40 MSTORE PUSH1 0x4 CALLDATASIZE LT PUSH2 0x70 JUMPI PUSH1 0x0 CALLDATALOAD PUSH1 0xE0 SHR DUP1 PUSH4 0x974C86B5 GT PUSH2 0x4E JUMPI DUP1 PUSH4 0x974C86B5 EQ PUSH2 0xF6 JUMPI DUP1 PUSH4 0x98D5FDCA EQ PUSH2 0x114 JUMPI DUP1 PUSH4 0xAA8C217C EQ PUSH2 0x13F JUMPI DUP1 PUSH4 0xF26EA8C9 EQ PUSH2 0x16A JUMPI PUSH2 0x70 JUMP JUMPDEST DUP1 PUSH4 0x519EE19E EQ PUSH2 0x75 JUMPI DUP1 PUSH4 0x7FF9B596 EQ PUSH2 0xA0 JUMPI DUP1 PUSH4 0x8DA5CB5B EQ PUSH2 0xCB JUMPI JUMPDEST PUSH1 0x0 DUP1 REVERT JUMPDEST CALLVALUE DUP1 ISZERO PUSH2 0x81 JUMPI PUSH1 0x0 DUP1 REVERT JUMPDEST POP PUSH2 0x8A PUSH2 0x195 JUMP JUMPDEST PUSH1 0x40 MLOAD PUSH2 0x97 SWAP2 SWAP1 PUSH2 0x81A JUMP JUMPDEST PUSH1 0x40 MLOAD DUP1 SWAP2 SUB SWAP1 RETURN JUMPDEST CALLVALUE DUP1 ISZERO PUSH2 0xAC JUMPI PUSH1 0x0 DUP1 REVERT JUMPDEST POP PUSH2 0xB5 PUSH2 0x19B JUMP JUMPDEST PUSH1 0x40 MLOAD PUSH2 0xC2 SWAP2 SWAP1 PUSH2 0x81A JUMP JUMPDEST PUSH1 0x40 MLOAD DUP1 SWAP2 SUB SWAP1 RETURN JUMPDEST CALLVALUE DUP1 ISZERO PUSH2 0xD7 JUMPI PUSH1 0x0 DUP1 REVERT JUMPDEST POP PUSH2 0xE0 PUSH2 0x1A1 JUMP JUMPDEST PUSH1 0x40 MLOAD PUSH2 0xED SWAP2 SWAP1 PUSH2 0x876 JUMP JUMPDEST PUSH1 0x40 MLOAD DUP1 SWAP2 SUB SWAP1 RETURN JUMPDEST PUSH2 0xFE PUSH2 0x1C5 JUMP JUMPDEST PUSH1 0x40 MLOAD PUSH2 0x10B SWAP2 SWAP1 PUSH2 0x81A JUMP JUMPDEST PUSH1 0x40 MLOAD DUP1 SWAP2 SUB SWAP1 RETURN JUMPDEST CALLVALUE DUP1 ISZERO PUSH2 0x120 JUMPI PUSH1 0x0 DUP1 REVERT JUMPDEST POP PUSH2 0x129 PUSH2 0x73C JUMP JUMPDEST PUSH1 0x40 MLOAD PUSH2 0x136 SWAP2 SWAP1 PUSH2 0x81A JUMP JUMPDEST PUSH1 0x40 MLOAD DUP1 SWAP2 SUB SWAP1 RETURN JUMPDEST CALLVALUE DUP1 ISZERO PUSH2 0x14B JUMPI PUSH1 0x0 DUP1 REVERT JUMPDEST POP PUSH2 0x154 PUSH2 0x7D5 JUMP JUMPDEST PUSH1 0x40 MLOAD PUSH2 0x161 SWAP2 SWAP1 PUSH2 0x81A JUMP JUMPDEST PUSH1 0x40 MLOAD DUP1 SWAP2 SUB SWAP1 RETURN JUMPDEST CALLVALUE DUP1 ISZERO PUSH2 0x176 JUMPI PUSH1 0x0 DUP1 REVERT JUMPDEST POP PUSH2 0x17F PUSH2 0x7DB JUMP JUMPDEST PUSH1 0x40 MLOAD PUSH2 0x18C SWAP2 SWAP1 PUSH2 0x8F0 JUMP JUMPDEST PUSH1 0x40 MLOAD DUP1 SWAP2 SUB SWAP1 RETURN JUMPDEST PUSH1 0x3 SLOAD DUP2 JUMP JUMPDEST PUSH1 0x4 SLOAD DUP2 JUMP JUMPDEST PUSH1 0x0 DUP1 SLOAD SWAP1 PUSH2 0x100 EXP SWAP1 DIV PUSH20 0xFFFFFFFFFFFFFFFFFFFFFFFFFFFFFFFFFFFFFFFF AND DUP2 JUMP JUMPDEST PUSH1 0x0 PUSH1 0x3 SLOAD PUSH1 0x64 PUSH1 0x3C PUSH1 0x1 PUSH1 0x0 SWAP1 SLOAD SWAP1 PUSH2 0x100 EXP SWAP1 DIV PUSH20 0xFFFFFFFFFFFFFFFFFFFFFFFFFFFFFFFFFFFFFFFF AND PUSH20 0xFFFFFFFFFFFFFFFFFFFFFFFFFFFFFFFFFFFFFFFF AND PUSH4 0x18160DDD PUSH1 0x40 MLOAD DUP2 PUSH4 0xFFFFFFFF AND PUSH1 0xE0 SHL DUP2 MSTORE PUSH1 0x4 ADD PUSH1 0x20 PUSH1 0x40 MLOAD DUP1 DUP4 SUB DUP2 DUP7 GAS STATICCALL ISZERO DUP1 ISZERO PUSH2 0x23B JUMPI RETURNDATASIZE PUSH1 0x0 DUP1 RETURNDATACOPY RETURNDATASIZE PUSH1 0x0 REVERT JUMPDEST POP POP POP POP PUSH1 0x40 MLOAD RETURNDATASIZE PUSH1 0x1F NOT PUSH1 0x1F DUP3 ADD AND DUP3 ADD DUP1 PUSH1 0x40 MSTORE POP DUP2 ADD SWAP1 PUSH2 0x25F SWAP2 SWAP1 PUSH2 0x93C JUMP JUMPDEST PUSH2 0x269 SWAP2 SWAP1 PUSH2 0x998 JUMP JUMPDEST PUSH2 0x273 SWAP2 SWAP1 PUSH2 0xA09 JUMP JUMPDEST LT ISZERO PUSH2 0x2B4 JUMPI PUSH1 0x40 MLOAD PUSH32 0x8C379A000000000000000000000000000000000000000000000000000000000 DUP2 MSTORE PUSH1 0x4 ADD PUSH2 0x2AB SWAP1 PUSH2 0xA97 JUMP JUMPDEST PUSH1 0x40 MLOAD DUP1 SWAP2 SUB SWAP1 REVERT JUMPDEST PUSH1 0x0 CALLVALUE GT PUSH2 0x2F7 JUMPI PUSH1 0x40 MLOAD PUSH32 0x8C379A000000000000000000000000000000000000000000000000000000000 DUP2 MSTORE PUSH1 0x4 ADD PUSH2 0x2EE SWAP1 PUSH2 0xB03 JUMP JUMPDEST PUSH1 0x40 MLOAD DUP1 SWAP2 SUB SWAP1 REVERT JUMPDEST PUSH1 0x4 SLOAD PUSH2 0x302 PUSH2 0x73C JUMP JUMPDEST CALLVALUE PUSH2 0x30D SWAP2 SWAP1 PUSH2 0x998 JUMP JUMPDEST PUSH2 0x317 SWAP2 SWAP1 PUSH2 0xA09 JUMP JUMPDEST PUSH1 0x2 DUP2 SWAP1 SSTORE POP PUSH1 0x2 SLOAD PUSH1 0x1 PUSH1 0x0 SWAP1 SLOAD SWAP1 PUSH2 0x100 EXP SWAP1 DIV PUSH20 0xFFFFFFFFFFFFFFFFFFFFFFFFFFFFFFFFFFFFFFFF AND PUSH20 0xFFFFFFFFFFFFFFFFFFFFFFFFFFFFFFFFFFFFFFFF AND PUSH4 0x70A08231 PUSH1 0x0 DUP1 SLOAD SWAP1 PUSH2 0x100 EXP SWAP1 DIV PUSH20 0xFFFFFFFFFFFFFFFFFFFFFFFFFFFFFFFFFFFFFFFF AND PUSH1 0x40 MLOAD DUP3 PUSH4 0xFFFFFFFF AND PUSH1 0xE0 SHL DUP2 MSTORE PUSH1 0x4 ADD PUSH2 0x39B SWAP2 SWAP1 PUSH2 0x876 JUMP JUMPDEST PUSH1 0x20 PUSH1 0x40 MLOAD DUP1 DUP4 SUB DUP2 DUP7 GAS STATICCALL ISZERO DUP1 ISZERO PUSH2 0x3B8 JUMPI RETURNDATASIZE PUSH1 0x0 DUP1 RETURNDATACOPY RETURNDATASIZE PUSH1 0x0 REVERT JUMPDEST POP POP POP POP PUSH1 0x40 MLOAD RETURNDATASIZE PUSH1 0x1F NOT PUSH1 0x1F DUP3 ADD AND DUP3 ADD DUP1 PUSH1 0x40 MSTORE POP DUP2 ADD SWAP1 PUSH2 0x3DC SWAP2 SWAP1 PUSH2 0x93C JUMP JUMPDEST LT ISZERO PUSH2 0x41D JUMPI PUSH1 0x40 MLOAD PUSH32 0x8C379A000000000000000000000000000000000000000000000000000000000 DUP2 MSTORE PUSH1 0x4 ADD PUSH2 0x414 SWAP1 PUSH2 0xB95 JUMP JUMPDEST PUSH1 0x40 MLOAD DUP1 SWAP2 SUB SWAP1 REVERT JUMPDEST PUSH1 0x1 PUSH1 0x0 SWAP1 SLOAD SWAP1 PUSH2 0x100 EXP SWAP1 DIV PUSH20 0xFFFFFFFFFFFFFFFFFFFFFFFFFFFFFFFFFFFFFFFF AND PUSH20 0xFFFFFFFFFFFFFFFFFFFFFFFFFFFFFFFFFFFFFFFF AND PUSH4 0x95EA7B3 ADDRESS PUSH1 0x64 PUSH1 0x3C PUSH1 0x1 PUSH1 0x0 SWAP1 SLOAD SWAP1 PUSH2 0x100 EXP SWAP1 DIV PUSH20 0xFFFFFFFFFFFFFFFFFFFFFFFFFFFFFFFFFFFFFFFF AND PUSH20 0xFFFFFFFFFFFFFFFFFFFFFFFFFFFFFFFFFFFFFFFF AND PUSH4 0x18160DDD PUSH1 0x40 MLOAD DUP2 PUSH4 0xFFFFFFFF AND PUSH1 0xE0 SHL DUP2 MSTORE PUSH1 0x4 ADD PUSH1 0x20 PUSH1 0x40 MLOAD DUP1 DUP4 SUB DUP2 DUP7 GAS STATICCALL ISZERO DUP1 ISZERO PUSH2 0x4CD JUMPI RETURNDATASIZE PUSH1 0x0 DUP1 RETURNDATACOPY RETURNDATASIZE PUSH1 0x0 REVERT JUMPDEST POP POP POP POP PUSH1 0x40 MLOAD RETURNDATASIZE PUSH1 0x1F NOT PUSH1 0x1F DUP3 ADD AND DUP3 ADD DUP1 PUSH1 0x40 MSTORE POP DUP2 ADD SWAP1 PUSH2 0x4F1 SWAP2 SWAP1 PUSH2 0x93C JUMP JUMPDEST PUSH2 0x4FB SWAP2 SWAP1 PUSH2 0x998 JUMP JUMPDEST PUSH2 0x505 SWAP2 SWAP1 PUSH2 0xA09 JUMP JUMPDEST PUSH1 0x40 MLOAD DUP4 PUSH4 0xFFFFFFFF AND PUSH1 0xE0 SHL DUP2 MSTORE PUSH1 0x4 ADD PUSH2 0x522 SWAP3 SWAP2 SWAP1 PUSH2 0xBB5 JUMP JUMPDEST PUSH1 0x20 PUSH1 0x40 MLOAD DUP1 DUP4 SUB DUP2 PUSH1 0x0 DUP8 GAS CALL ISZERO DUP1 ISZERO PUSH2 0x541 JUMPI RETURNDATASIZE PUSH1 0x0 DUP1 RETURNDATACOPY RETURNDATASIZE PUSH1 0x0 REVERT JUMPDEST POP POP POP POP PUSH1 0x40 MLOAD RETURNDATASIZE PUSH1 0x1F NOT PUSH1 0x1F DUP3 ADD AND DUP3 ADD DUP1 PUSH1 0x40 MSTORE POP DUP2 ADD SWAP1 PUSH2 0x565 SWAP2 SWAP1 PUSH2 0xC16 JUMP JUMPDEST POP PUSH1 0x1 PUSH1 0x0 SWAP1 SLOAD SWAP1 PUSH2 0x100 EXP SWAP1 DIV PUSH20 0xFFFFFFFFFFFFFFFFFFFFFFFFFFFFFFFFFFFFFFFF AND PUSH20 0xFFFFFFFFFFFFFFFFFFFFFFFFFFFFFFFFFFFFFFFF AND PUSH4 0x23B872DD PUSH1 0x0 DUP1 SLOAD SWAP1 PUSH2 0x100 EXP SWAP1 DIV PUSH20 0xFFFFFFFFFFFFFFFFFFFFFFFFFFFFFFFFFFFFFFFF AND CALLER PUSH1 0x2 SLOAD PUSH1 0x40 MLOAD DUP5 PUSH4 0xFFFFFFFF AND PUSH1 0xE0 SHL DUP2 MSTORE PUSH1 0x4 ADD PUSH2 0x5E7 SWAP4 SWAP3 SWAP2 SWAP1 PUSH2 0xC43 JUMP JUMPDEST PUSH1 0x20 PUSH1 0x40 MLOAD DUP1 DUP4 SUB DUP2 PUSH1 0x0 DUP8 GAS CALL ISZERO DUP1 ISZERO PUSH2 0x606 JUMPI RETURNDATASIZE PUSH1 0x0 DUP1 RETURNDATACOPY RETURNDATASIZE PUSH1 0x0 REVERT JUMPDEST POP POP POP POP PUSH1 0x40 MLOAD RETURNDATASIZE PUSH1 0x1F NOT PUSH1 0x1F DUP3 ADD AND DUP3 ADD DUP1 PUSH1 0x40 MSTORE POP DUP2 ADD SWAP1 PUSH2 0x62A SWAP2 SWAP1 PUSH2 0xC16 JUMP JUMPDEST POP CALLER PUSH20 0xFFFFFFFFFFFFFFFFFFFFFFFFFFFFFFFFFFFFFFFF AND PUSH1 0x0 DUP1 SLOAD SWAP1 PUSH2 0x100 EXP SWAP1 DIV PUSH20 0xFFFFFFFFFFFFFFFFFFFFFFFFFFFFFFFFFFFFFFFF AND PUSH20 0xFFFFFFFFFFFFFFFFFFFFFFFFFFFFFFFFFFFFFFFF AND PUSH32 0xAE98FDB7F4BC601D31354DD8C8BA584BF892418C4DF67ABA01011867BD88EA27 PUSH1 0x2 SLOAD PUSH1 0x40 MLOAD PUSH2 0x6AA SWAP2 SWAP1 PUSH2 0x81A JUMP JUMPDEST PUSH1 0x40 MLOAD DUP1 SWAP2 SUB SWAP1 LOG3 PUSH1 0x2 SLOAD PUSH1 0x3 PUSH1 0x0 DUP3 DUP3 SLOAD PUSH2 0x6C6 SWAP2 SWAP1 PUSH2 0xC7A JUMP JUMPDEST SWAP3 POP POP DUP2 SWAP1 SSTORE POP PUSH1 0x0 DUP1 SLOAD SWAP1 PUSH2 0x100 EXP SWAP1 DIV PUSH20 0xFFFFFFFFFFFFFFFFFFFFFFFFFFFFFFFFFFFFFFFF AND PUSH20 0xFFFFFFFFFFFFFFFFFFFFFFFFFFFFFFFFFFFFFFFF AND PUSH2 0x8FC CALLVALUE SWAP1 DUP2 ISZERO MUL SWAP1 PUSH1 0x40 MLOAD PUSH1 0x0 PUSH1 0x40 MLOAD DUP1 DUP4 SUB DUP2 DUP6 DUP9 DUP9 CALL SWAP4 POP POP POP POP ISZERO DUP1 ISZERO PUSH2 0x733 JUMPI RETURNDATASIZE PUSH1 0x0 DUP1 RETURNDATACOPY RETURNDATASIZE PUSH1 0x0 REVERT JUMPDEST POP PUSH1 0x2 SLOAD SWAP1 POP SWAP1 JUMP JUMPDEST PUSH1 0x0 DUP1 PUSH20 0x2514895C72F50D8BD4B4F9B1110F0D6BD2C97526 SWAP1 POP PUSH1 0x0 DUP2 PUSH20 0xFFFFFFFFFFFFFFFFFFFFFFFFFFFFFFFFFFFFFFFF AND PUSH4 0xFEAF968C PUSH1 0x40 MLOAD DUP2 PUSH4 0xFFFFFFFF AND PUSH1 0xE0 SHL DUP2 MSTORE PUSH1 0x4 ADD PUSH1 0xA0 PUSH1 0x40 MLOAD DUP1 DUP4 SUB DUP2 DUP7 GAS STATICCALL ISZERO DUP1 ISZERO PUSH2 0x7A3 JUMPI RETURNDATASIZE PUSH1 0x0 DUP1 RETURNDATACOPY RETURNDATASIZE PUSH1 0x0 REVERT JUMPDEST POP POP POP POP PUSH1 0x40 MLOAD RETURNDATASIZE PUSH1 0x1F NOT PUSH1 0x1F DUP3 ADD AND DUP3 ADD DUP1 PUSH1 0x40 MSTORE POP DUP2 ADD SWAP1 PUSH2 0x7C7 SWAP2 SWAP1 PUSH2 0xD26 JUMP JUMPDEST POP POP POP SWAP2 POP POP DUP1 SWAP3 POP POP POP SWAP1 JUMP JUMPDEST PUSH1 0x2 SLOAD DUP2 JUMP JUMPDEST PUSH1 0x1 PUSH1 0x0 SWAP1 SLOAD SWAP1 PUSH2 0x100 EXP SWAP1 DIV PUSH20 0xFFFFFFFFFFFFFFFFFFFFFFFFFFFFFFFFFFFFFFFF AND DUP2 JUMP JUMPDEST PUSH1 0x0 DUP2 SWAP1 POP SWAP2 SWAP1 POP JUMP JUMPDEST PUSH2 0x814 DUP2 PUSH2 0x801 JUMP JUMPDEST DUP3 MSTORE POP POP JUMP JUMPDEST PUSH1 0x0 PUSH1 0x20 DUP3 ADD SWAP1 POP PUSH2 0x82F PUSH1 0x0 DUP4 ADD DUP5 PUSH2 0x80B JUMP JUMPDEST SWAP3 SWAP2 POP POP JUMP JUMPDEST PUSH1 0x0 PUSH20 0xFFFFFFFFFFFFFFFFFFFFFFFFFFFFFFFFFFFFFFFF DUP3 AND SWAP1 POP SWAP2 SWAP1 POP JUMP JUMPDEST PUSH1 0x0 PUSH2 0x860 DUP3 PUSH2 0x835 JUMP JUMPDEST SWAP1 POP SWAP2 SWAP1 POP JUMP JUMPDEST PUSH2 0x870 DUP2 PUSH2 0x855 JUMP JUMPDEST DUP3 MSTORE POP POP JUMP JUMPDEST PUSH1 0x0 PUSH1 0x20 DUP3 ADD SWAP1 POP PUSH2 0x88B PUSH1 0x0 DUP4 ADD DUP5 PUSH2 0x867 JUMP JUMPDEST SWAP3 SWAP2 POP POP JUMP JUMPDEST PUSH1 0x0 DUP2 SWAP1 POP SWAP2 SWAP1 POP JUMP JUMPDEST PUSH1 0x0 PUSH2 0x8B6 PUSH2 0x8B1 PUSH2 0x8AC DUP5 PUSH2 0x835 JUMP JUMPDEST PUSH2 0x891 JUMP JUMPDEST PUSH2 0x835 JUMP JUMPDEST SWAP1 POP SWAP2 SWAP1 POP JUMP JUMPDEST PUSH1 0x0 PUSH2 0x8C8 DUP3 PUSH2 0x89B JUMP JUMPDEST SWAP1 POP SWAP2 SWAP1 POP JUMP JUMPDEST PUSH1 0x0 PUSH2 0x8DA DUP3 PUSH2 0x8BD JUMP JUMPDEST SWAP1 POP SWAP2 SWAP1 POP JUMP JUMPDEST PUSH2 0x8EA DUP2 PUSH2 0x8CF JUMP JUMPDEST DUP3 MSTORE POP POP JUMP JUMPDEST PUSH1 0x0 PUSH1 0x20 DUP3 ADD SWAP1 POP PUSH2 0x905 PUSH1 0x0 DUP4 ADD DUP5 PUSH2 0x8E1 JUMP JUMPDEST SWAP3 SWAP2 POP POP JUMP JUMPDEST PUSH1 0x0 DUP1 REVERT JUMPDEST PUSH2 0x919 DUP2 PUSH2 0x801 JUMP JUMPDEST DUP2 EQ PUSH2 0x924 JUMPI PUSH1 0x0 DUP1 REVERT JUMPDEST POP JUMP JUMPDEST PUSH1 0x0 DUP2 MLOAD SWAP1 POP PUSH2 0x936 DUP2 PUSH2 0x910 JUMP JUMPDEST SWAP3 SWAP2 POP POP JUMP JUMPDEST PUSH1 0x0 PUSH1 0x20 DUP3 DUP5 SUB SLT ISZERO PUSH2 0x952 JUMPI PUSH2 0x951 PUSH2 0x90B JUMP JUMPDEST JUMPDEST PUSH1 0x0 PUSH2 0x960 DUP5 DUP3 DUP6 ADD PUSH2 0x927 JUMP JUMPDEST SWAP2 POP POP SWAP3 SWAP2 POP POP JUMP JUMPDEST PUSH32 0x4E487B7100000000000000000000000000000000000000000000000000000000 PUSH1 0x0 MSTORE PUSH1 0x11 PUSH1 0x4 MSTORE PUSH1 0x24 PUSH1 0x0 REVERT JUMPDEST PUSH1 0x0 PUSH2 0x9A3 DUP3 PUSH2 0x801 JUMP JUMPDEST SWAP2 POP PUSH2 0x9AE DUP4 PUSH2 0x801 JUMP JUMPDEST SWAP3 POP DUP3 DUP3 MUL PUSH2 0x9BC DUP2 PUSH2 0x801 JUMP JUMPDEST SWAP2 POP DUP3 DUP3 DIV DUP5 EQ DUP4 ISZERO OR PUSH2 0x9D3 JUMPI PUSH2 0x9D2 PUSH2 0x969 JUMP JUMPDEST JUMPDEST POP SWAP3 SWAP2 POP POP JUMP JUMPDEST PUSH32 0x4E487B7100000000000000000000000000000000000000000000000000000000 PUSH1 0x0 MSTORE PUSH1 0x12 PUSH1 0x4 MSTORE PUSH1 0x24 PUSH1 0x0 REVERT JUMPDEST PUSH1 0x0 PUSH2 0xA14 DUP3 PUSH2 0x801 JUMP JUMPDEST SWAP2 POP PUSH2 0xA1F DUP4 PUSH2 0x801 JUMP JUMPDEST SWAP3 POP DUP3 PUSH2 0xA2F JUMPI PUSH2 0xA2E PUSH2 0x9DA JUMP JUMPDEST JUMPDEST DUP3 DUP3 DIV SWAP1 POP SWAP3 SWAP2 POP POP JUMP JUMPDEST PUSH1 0x0 DUP3 DUP3 MSTORE PUSH1 0x20 DUP3 ADD SWAP1 POP SWAP3 SWAP2 POP POP JUMP JUMPDEST PUSH32 0x7468652070726573616C652068617320656E6465640000000000000000000000 PUSH1 0x0 DUP3 ADD MSTORE POP JUMP JUMPDEST PUSH1 0x0 PUSH2 0xA81 PUSH1 0x15 DUP4 PUSH2 0xA3A JUMP JUMPDEST SWAP2 POP PUSH2 0xA8C DUP3 PUSH2 0xA4B JUMP JUMPDEST PUSH1 0x20 DUP3 ADD SWAP1 POP SWAP2 SWAP1 POP JUMP JUMPDEST PUSH1 0x0 PUSH1 0x20 DUP3 ADD SWAP1 POP DUP2 DUP2 SUB PUSH1 0x0 DUP4 ADD MSTORE PUSH2 0xAB0 DUP2 PUSH2 0xA74 JUMP JUMPDEST SWAP1 POP SWAP2 SWAP1 POP JUMP JUMPDEST PUSH32 0x506C6561736520656E7465722061206E6F6E207A65726F20616D6F756E740000 PUSH1 0x0 DUP3 ADD MSTORE POP JUMP JUMPDEST PUSH1 0x0 PUSH2 0xAED PUSH1 0x1E DUP4 PUSH2 0xA3A JUMP JUMPDEST SWAP2 POP PUSH2 0xAF8 DUP3 PUSH2 0xAB7 JUMP JUMPDEST PUSH1 0x20 DUP3 ADD SWAP1 POP SWAP2 SWAP1 POP JUMP JUMPDEST PUSH1 0x0 PUSH1 0x20 DUP3 ADD SWAP1 POP DUP2 DUP2 SUB PUSH1 0x0 DUP4 ADD MSTORE PUSH2 0xB1C DUP2 PUSH2 0xAE0 JUMP JUMPDEST SWAP1 POP SWAP2 SWAP1 POP JUMP JUMPDEST PUSH32 0x42616C616E636520696E20746F6B656E2077697468206F776E6572206973206E PUSH1 0x0 DUP3 ADD MSTORE PUSH32 0x6F7420656E6F7567680000000000000000000000000000000000000000000000 PUSH1 0x20 DUP3 ADD MSTORE POP JUMP JUMPDEST PUSH1 0x0 PUSH2 0xB7F PUSH1 0x29 DUP4 PUSH2 0xA3A JUMP JUMPDEST SWAP2 POP PUSH2 0xB8A DUP3 PUSH2 0xB23 JUMP JUMPDEST PUSH1 0x40 DUP3 ADD SWAP1 POP SWAP2 SWAP1 POP JUMP JUMPDEST PUSH1 0x0 PUSH1 0x20 DUP3 ADD SWAP1 POP DUP2 DUP2 SUB PUSH1 0x0 DUP4 ADD MSTORE PUSH2 0xBAE DUP2 PUSH2 0xB72 JUMP JUMPDEST SWAP1 POP SWAP2 SWAP1 POP JUMP JUMPDEST PUSH1 0x0 PUSH1 0x40 DUP3 ADD SWAP1 POP PUSH2 0xBCA PUSH1 0x0 DUP4 ADD DUP6 PUSH2 0x867 JUMP JUMPDEST PUSH2 0xBD7 PUSH1 0x20 DUP4 ADD DUP5 PUSH2 0x80B JUMP JUMPDEST SWAP4 SWAP3 POP POP POP JUMP JUMPDEST PUSH1 0x0 DUP2 ISZERO ISZERO SWAP1 POP SWAP2 SWAP1 POP JUMP JUMPDEST PUSH2 0xBF3 DUP2 PUSH2 0xBDE JUMP JUMPDEST DUP2 EQ PUSH2 0xBFE JUMPI PUSH1 0x0 DUP1 REVERT JUMPDEST POP JUMP JUMPDEST PUSH1 0x0 DUP2 MLOAD SWAP1 POP PUSH2 0xC10 DUP2 PUSH2 0xBEA JUMP JUMPDEST SWAP3 SWAP2 POP POP JUMP JUMPDEST PUSH1 0x0 PUSH1 0x20 DUP3 DUP5 SUB SLT ISZERO PUSH2 0xC2C JUMPI PUSH2 0xC2B PUSH2 0x90B JUMP JUMPDEST JUMPDEST PUSH1 0x0 PUSH2 0xC3A DUP5 DUP3 DUP6 ADD PUSH2 0xC01 JUMP JUMPDEST SWAP2 POP POP SWAP3 SWAP2 POP POP JUMP JUMPDEST PUSH1 0x0 PUSH1 0x60 DUP3 ADD SWAP1 POP PUSH2 0xC58 PUSH1 0x0 DUP4 ADD DUP7 PUSH2 0x867 JUMP JUMPDEST PUSH2 0xC65 PUSH1 0x20 DUP4 ADD DUP6 PUSH2 0x867 JUMP JUMPDEST PUSH2 0xC72 PUSH1 0x40 DUP4 ADD DUP5 PUSH2 0x80B JUMP JUMPDEST SWAP5 SWAP4 POP POP POP POP JUMP JUMPDEST PUSH1 0x0 PUSH2 0xC85 DUP3 PUSH2 0x801 JUMP JUMPDEST SWAP2 POP PUSH2 0xC90 DUP4 PUSH2 0x801 JUMP JUMPDEST SWAP3 POP DUP3 DUP3 ADD SWAP1 POP DUP1 DUP3 GT ISZERO PUSH2 0xCA8 JUMPI PUSH2 0xCA7 PUSH2 0x969 JUMP JUMPDEST JUMPDEST SWAP3 SWAP2 POP POP JUMP JUMPDEST PUSH1 0x0 PUSH10 0xFFFFFFFFFFFFFFFFFFFF DUP3 AND SWAP1 POP SWAP2 SWAP1 POP JUMP JUMPDEST PUSH2 0xCCD DUP2 PUSH2 0xCAE JUMP JUMPDEST DUP2 EQ PUSH2 0xCD8 JUMPI PUSH1 0x0 DUP1 REVERT JUMPDEST POP JUMP JUMPDEST PUSH1 0x0 DUP2 MLOAD SWAP1 POP PUSH2 0xCEA DUP2 PUSH2 0xCC4 JUMP JUMPDEST SWAP3 SWAP2 POP POP JUMP JUMPDEST PUSH1 0x0 DUP2 SWAP1 POP SWAP2 SWAP1 POP JUMP JUMPDEST PUSH2 0xD03 DUP2 PUSH2 0xCF0 JUMP JUMPDEST DUP2 EQ PUSH2 0xD0E JUMPI PUSH1 0x0 DUP1 REVERT JUMPDEST POP JUMP JUMPDEST PUSH1 0x0 DUP2 MLOAD SWAP1 POP PUSH2 0xD20 DUP2 PUSH2 0xCFA JUMP JUMPDEST SWAP3 SWAP2 POP POP JUMP JUMPDEST PUSH1 0x0 DUP1 PUSH1 0x0 DUP1 PUSH1 0x0 PUSH1 0xA0 DUP7 DUP9 SUB SLT ISZERO PUSH2 0xD42 JUMPI PUSH2 0xD41 PUSH2 0x90B JUMP JUMPDEST JUMPDEST PUSH1 0x0 PUSH2 0xD50 DUP9 DUP3 DUP10 ADD PUSH2 0xCDB JUMP JUMPDEST SWAP6 POP POP PUSH1 0x20 PUSH2 0xD61 DUP9 DUP3 DUP10 ADD PUSH2 0xD11 JUMP JUMPDEST SWAP5 POP POP PUSH1 0x40 PUSH2 0xD72 DUP9 DUP3 DUP10 ADD PUSH2 0x927 JUMP JUMPDEST SWAP4 POP POP PUSH1 0x60 PUSH2 0xD83 DUP9 DUP3 DUP10 ADD PUSH2 0x927 JUMP JUMPDEST SWAP3 POP POP PUSH1 0x80 PUSH2 0xD94 DUP9 DUP3 DUP10 ADD PUSH2 0xCDB JUMP JUMPDEST SWAP2 POP POP SWAP3 SWAP6 POP SWAP3 SWAP6 SWAP1 SWAP4 POP JUMP INVALID LOG2 PUSH5 0x6970667358 0x22 SLT KECCAK256 SGT 0xB8 SWAP14 LOG3 MULMOD EXTCODEHASH 0xE3 SIGNEXTEND 0xBA 0xBB 0xF7 TIMESTAMP 0x21 0xDE 0x22 0xC6 PUSH21 0xF04160ADB01F2C787117C4AC32051E64736F6C6343 STOP ADDMOD GT STOP CALLER "},"methodIdentifiers":{"Buy()":"974c86b5","amount()":"aa8c217c","getPrice()":"98d5fdca","owner()":"8da5cb5b","tokenCont()":"f26ea8c9","tokenPrice()":"7ff9b596","tokenSold()":"519ee19e"}}}}}