{
  "_format": "hh-sol-artifact-1",
  "contractName": "Stake",
  "sourceName": "contracts/stake.sol",
  "abi": [
    {
      "inputs": [],
      "stateMutability": "nonpayable",
      "type": "constructor"
    },
    {
      "anonymous": false,
      "inputs": [
        {
          "indexed": true,
          "internalType": "address",
          "name": "_from",
          "type": "address"
        },
        {
          "indexed": true,
          "internalType": "address",
          "name": "to",
          "type": "address"
        },
        {
          "indexed": false,
          "internalType": "uint256",
          "name": "value",
          "type": "uint256"
        }
      ],
      "name": "Transfer",
      "type": "event"
    },
    {
      "inputs": [
        {
          "internalType": "uint256",
          "name": "_timeDuration",
          "type": "uint256"
        },
        {
          "internalType": "uint256",
          "name": "_amt",
          "type": "uint256"
        }
      ],
      "name": "amountStacked",
      "outputs": [],
      "stateMutability": "nonpayable",
      "type": "function"
    },
    {
      "inputs": [],
      "name": "contract20",
      "outputs": [
        {
          "internalType": "contract Token",
          "name": "",
          "type": "address"
        }
      ],
      "stateMutability": "view",
      "type": "function"
    },
    {
      "inputs": [
        {
          "internalType": "address",
          "name": "",
          "type": "address"
        }
      ],
      "name": "depositors",
      "outputs": [
        {
          "internalType": "uint256",
          "name": "timeDuration",
          "type": "uint256"
        },
        {
          "internalType": "uint256",
          "name": "amount",
          "type": "uint256"
        }
      ],
      "stateMutability": "view",
      "type": "function"
    },
    {
      "inputs": [],
      "name": "owner",
      "outputs": [
        {
          "internalType": "address",
          "name": "",
          "type": "address"
        }
      ],
      "stateMutability": "view",
      "type": "function"
    },
    {
      "inputs": [],
      "name": "stackTime",
      "outputs": [
        {
          "internalType": "uint256",
          "name": "",
          "type": "uint256"
        }
      ],
      "stateMutability": "view",
      "type": "function"
    },
    {
      "inputs": [],
      "name": "withdraw",
      "outputs": [],
      "stateMutability": "nonpayable",
      "type": "function"
    }
  ],
  "bytecode": "0x608060405234801561001057600080fd5b5033600260006101000a81548173ffffffffffffffffffffffffffffffffffffffff021916908373ffffffffffffffffffffffffffffffffffffffff160217905550733394cffa818c40c88cc45661379f1c9e85dde8d1600160006101000a81548173ffffffffffffffffffffffffffffffffffffffff021916908373ffffffffffffffffffffffffffffffffffffffff1602179055506110f2806100b66000396000f3fe608060405234801561001057600080fd5b50600436106100625760003560e01c80630e1228ae146100675780633ccfd60b146100855780638da5cb5b1461008f578063b6a4883c146100ad578063eed75f6d146100cb578063fe54151f146100fc575b600080fd5b61006f610118565b60405161007c9190610b17565b60405180910390f35b61008d61013e565b005b6100976104fa565b6040516100a49190610b53565b60405180910390f35b6100b5610520565b6040516100c29190610b87565b60405180910390f35b6100e560048036038101906100e09190610bd3565b610526565b6040516100f3929190610c00565b60405180910390f35b61011660048036038101906101119190610c55565b61054a565b005b600160009054906101000a900473ffffffffffffffffffffffffffffffffffffffff1681565b600080544261014d9190610cc4565b9050600460003373ffffffffffffffffffffffffffffffffffffffff1673ffffffffffffffffffffffffffffffffffffffff168152602001908152602001600020600001548110156101d4576040517f08c379a00000000000000000000000000000000000000000000000000000000081526004016101cb90610d55565b60405180910390fd5b60006064600460003373ffffffffffffffffffffffffffffffffffffffff1673ffffffffffffffffffffffffffffffffffffffff16815260200190815260200160002060000154600460003373ffffffffffffffffffffffffffffffffffffffff1673ffffffffffffffffffffffffffffffffffffffff16815260200190815260200160002060010154600161026a9190610d75565b6102749190610d75565b61027e9190610de6565b9050600081600460003373ffffffffffffffffffffffffffffffffffffffff1673ffffffffffffffffffffffffffffffffffffffff168152602001908152602001600020600101546102d09190610e17565b9050600081116102df57600080fd5b80600160009054906101000a900473ffffffffffffffffffffffffffffffffffffffff1673ffffffffffffffffffffffffffffffffffffffff166370a08231600260009054906101000a900473ffffffffffffffffffffffffffffffffffffffff166040518263ffffffff1660e01b815260040161035d9190610b53565b602060405180830381865afa15801561037a573d6000803e3d6000fd5b505050506040513d601f19601f8201168201806040525081019061039e9190610e60565b10156103a957600080fd5b600160009054906101000a900473ffffffffffffffffffffffffffffffffffffffff1673ffffffffffffffffffffffffffffffffffffffff166323b872dd600260009054906101000a900473ffffffffffffffffffffffffffffffffffffffff1633846040518463ffffffff1660e01b815260040161042a93929190610e8d565b6020604051808303816000875af1158015610449573d6000803e3d6000fd5b505050506040513d601f19601f8201168201806040525081019061046d9190610efc565b503373ffffffffffffffffffffffffffffffffffffffff16600260009054906101000a900473ffffffffffffffffffffffffffffffffffffffff1673ffffffffffffffffffffffffffffffffffffffff167fddf252ad1be2c89b69c2b068fc378daa952ba7f163c4a11628f55a4df523b3ef836040516104ed9190610b87565b60405180910390a3505050565b600260009054906101000a900473ffffffffffffffffffffffffffffffffffffffff1681565b60005481565b60046020528060005260406000206000915090508060000154908060010154905082565b81600460003373ffffffffffffffffffffffffffffffffffffffff1673ffffffffffffffffffffffffffffffffffffffff16815260200190815260200160002060000181905550426000819055506064601e600160009054906101000a900473ffffffffffffffffffffffffffffffffffffffff1673ffffffffffffffffffffffffffffffffffffffff166318160ddd6040518163ffffffff1660e01b8152600401602060405180830381865afa158015610609573d6000803e3d6000fd5b505050506040513d601f19601f8201168201806040525081019061062d9190610e60565b6106379190610d75565b6106419190610de6565b6003541115610685576040517f08c379a000000000000000000000000000000000000000000000000000000000815260040161067c90610f75565b60405180910390fd5b600081116106c8576040517f08c379a00000000000000000000000000000000000000000000000000000000081526004016106bf90610fe1565b60405180910390fd5b80600160009054906101000a900473ffffffffffffffffffffffffffffffffffffffff1673ffffffffffffffffffffffffffffffffffffffff166370a08231336040518263ffffffff1660e01b81526004016107249190610b53565b602060405180830381865afa158015610741573d6000803e3d6000fd5b505050506040513d601f19601f820116820180604052508101906107659190610e60565b10156107a6576040517f08c379a000000000000000000000000000000000000000000000000000000000815260040161079d90611073565b60405180910390fd5b600160009054906101000a900473ffffffffffffffffffffffffffffffffffffffff1673ffffffffffffffffffffffffffffffffffffffff166323b872dd33600260009054906101000a900473ffffffffffffffffffffffffffffffffffffffff16846040518463ffffffff1660e01b815260040161082793929190610e8d565b6020604051808303816000875af1158015610846573d6000803e3d6000fd5b505050506040513d601f19601f8201168201806040525081019061086a9190610efc565b50600160009054906101000a900473ffffffffffffffffffffffffffffffffffffffff1673ffffffffffffffffffffffffffffffffffffffff1663095ea7b3306064601e600160009054906101000a900473ffffffffffffffffffffffffffffffffffffffff1673ffffffffffffffffffffffffffffffffffffffff166318160ddd6040518163ffffffff1660e01b8152600401602060405180830381865afa15801561091b573d6000803e3d6000fd5b505050506040513d601f19601f8201168201806040525081019061093f9190610e60565b6109499190610d75565b6109539190610de6565b6040518363ffffffff1660e01b8152600401610970929190611093565b6020604051808303816000875af115801561098f573d6000803e3d6000fd5b505050506040513d601f19601f820116820180604052508101906109b39190610efc565b50600260009054906101000a900473ffffffffffffffffffffffffffffffffffffffff1673ffffffffffffffffffffffffffffffffffffffff163373ffffffffffffffffffffffffffffffffffffffff167fddf252ad1be2c89b69c2b068fc378daa952ba7f163c4a11628f55a4df523b3ef83604051610a339190610b87565b60405180910390a380600460003373ffffffffffffffffffffffffffffffffffffffff1673ffffffffffffffffffffffffffffffffffffffff1681526020019081526020016000206001016000828254610a8d9190610e17565b925050819055505050565b600073ffffffffffffffffffffffffffffffffffffffff82169050919050565b6000819050919050565b6000610add610ad8610ad384610a98565b610ab8565b610a98565b9050919050565b6000610aef82610ac2565b9050919050565b6000610b0182610ae4565b9050919050565b610b1181610af6565b82525050565b6000602082019050610b2c6000830184610b08565b92915050565b6000610b3d82610a98565b9050919050565b610b4d81610b32565b82525050565b6000602082019050610b686000830184610b44565b92915050565b6000819050919050565b610b8181610b6e565b82525050565b6000602082019050610b9c6000830184610b78565b92915050565b600080fd5b610bb081610b32565b8114610bbb57600080fd5b50565b600081359050610bcd81610ba7565b92915050565b600060208284031215610be957610be8610ba2565b5b6000610bf784828501610bbe565b91505092915050565b6000604082019050610c156000830185610b78565b610c226020830184610b78565b9392505050565b610c3281610b6e565b8114610c3d57600080fd5b50565b600081359050610c4f81610c29565b92915050565b60008060408385031215610c6c57610c6b610ba2565b5b6000610c7a85828601610c40565b9250506020610c8b85828601610c40565b9150509250929050565b7f4e487b7100000000000000000000000000000000000000000000000000000000600052601160045260246000fd5b6000610ccf82610b6e565b9150610cda83610b6e565b9250828203905081811115610cf257610cf1610c95565b5b92915050565b600082825260208201905092915050565b7f63616e6e6f74207769746864726177207269676874206e6f7700000000000000600082015250565b6000610d3f601983610cf8565b9150610d4a82610d09565b602082019050919050565b60006020820190508181036000830152610d6e81610d32565b9050919050565b6000610d8082610b6e565b9150610d8b83610b6e565b9250828202610d9981610b6e565b91508282048414831517610db057610daf610c95565b5b5092915050565b7f4e487b7100000000000000000000000000000000000000000000000000000000600052601260045260246000fd5b6000610df182610b6e565b9150610dfc83610b6e565b925082610e0c57610e0b610db7565b5b828204905092915050565b6000610e2282610b6e565b9150610e2d83610b6e565b9250828201905080821115610e4557610e44610c95565b5b92915050565b600081519050610e5a81610c29565b92915050565b600060208284031215610e7657610e75610ba2565b5b6000610e8484828501610e4b565b91505092915050565b6000606082019050610ea26000830186610b44565b610eaf6020830185610b44565b610ebc6040830184610b78565b949350505050565b60008115159050919050565b610ed981610ec4565b8114610ee457600080fd5b50565b600081519050610ef681610ed0565b92915050565b600060208284031215610f1257610f11610ba2565b5b6000610f2084828501610ee7565b91505092915050565b7f4e6f206d6f726520616d6f756e742063616e20626520737461636b6564000000600082015250565b6000610f5f601d83610cf8565b9150610f6a82610f29565b602082019050919050565b60006020820190508181036000830152610f8e81610f52565b9050919050565b7f706c656173652070726f766964652061206e6f6e207a65726f20616d6f756e74600082015250565b6000610fcb602083610cf8565b9150610fd682610f95565b602082019050919050565b60006020820190508181036000830152610ffa81610fbe565b9050919050565b7f796f7520646f6e74206861766520737566666963656e7420636f696e2062616c60008201527f616e636500000000000000000000000000000000000000000000000000000000602082015250565b600061105d602483610cf8565b915061106882611001565b604082019050919050565b6000602082019050818103600083015261108c81611050565b9050919050565b60006040820190506110a86000830185610b44565b6110b56020830184610b78565b939250505056fea2646970667358221220cb09597456b157e3a34b76bb7d8e83ad2221211ca66f8df34769a6aefa2818e064736f6c63430008110033",
  "linkReferences": {},
  "deployedLinkReferences": {}
}