{
  "_format": "hh-sol-artifact-1",
  "contractName": "ICO",
  "sourceName": "contracts/ico.sol",
  "abi": [
    {
      "inputs": [],
      "stateMutability": "nonpayable",
      "type": "constructor"
    },
    {
      "anonymous": false,
      "inputs": [
        {
          "indexed": true,
          "internalType": "address",
          "name": "_from",
          "type": "address"
        },
        {
          "indexed": true,
          "internalType": "address",
          "name": "_to",
          "type": "address"
        },
        {
          "indexed": false,
          "internalType": "uint256",
          "name": "_amount",
          "type": "uint256"
        }
      ],
      "name": "Sell",
      "type": "event"
    },
    {
      "inputs": [],
      "name": "Buy",
      "outputs": [
        {
          "internalType": "uint256",
          "name": "",
          "type": "uint256"
        }
      ],
      "stateMutability": "payable",
      "type": "function"
    },
    {
      "inputs": [],
      "name": "amount",
      "outputs": [
        {
          "internalType": "uint256",
          "name": "",
          "type": "uint256"
        }
      ],
      "stateMutability": "view",
      "type": "function"
    },
    {
      "inputs": [],
      "name": "getPrice",
      "outputs": [
        {
          "internalType": "uint256",
          "name": "",
          "type": "uint256"
        }
      ],
      "stateMutability": "view",
      "type": "function"
    },
    {
      "inputs": [],
      "name": "owner",
      "outputs": [
        {
          "internalType": "address",
          "name": "",
          "type": "address"
        }
      ],
      "stateMutability": "view",
      "type": "function"
    },
    {
      "inputs": [],
      "name": "tokenCont",
      "outputs": [
        {
          "internalType": "contract Token",
          "name": "",
          "type": "address"
        }
      ],
      "stateMutability": "view",
      "type": "function"
    },
    {
      "inputs": [],
      "name": "tokenPrice",
      "outputs": [
        {
          "internalType": "uint256",
          "name": "",
          "type": "uint256"
        }
      ],
      "stateMutability": "view",
      "type": "function"
    },
    {
      "inputs": [],
      "name": "tokenSold",
      "outputs": [
        {
          "internalType": "uint256",
          "name": "",
          "type": "uint256"
        }
      ],
      "stateMutability": "view",
      "type": "function"
    }
  ],
  "bytecode": "0x608060405262000014620000d360201b60201c565b655af3107a4000620000279190620001a8565b6004553480156200003757600080fd5b50336000806101000a81548173ffffffffffffffffffffffffffffffffffffffff021916908373ffffffffffffffffffffffffffffffffffffffff1602179055507385314b49a5c2e9a08e0c7f8986d5fc39a7f9928a600160006101000a81548173ffffffffffffffffffffffffffffffffffffffff021916908373ffffffffffffffffffffffffffffffffffffffff16021790555062000333565b600080732514895c72f50d8bd4b4f9b1110f0d6bd2c97526905060008173ffffffffffffffffffffffffffffffffffffffff1663feaf968c6040518163ffffffff1660e01b815260040160a060405180830381865afa1580156200013b573d6000803e3d6000fd5b505050506040513d601f19601f82011682018060405250810190620001619190620002ab565b505050915050809250505090565b6000819050919050565b7f4e487b7100000000000000000000000000000000000000000000000000000000600052601160045260246000fd5b6000620001b5826200016f565b9150620001c2836200016f565b9250828202620001d2816200016f565b91508282048414831517620001ec57620001eb62000179565b5b5092915050565b600080fd5b600069ffffffffffffffffffff82169050919050565b6200021981620001f8565b81146200022557600080fd5b50565b60008151905062000239816200020e565b92915050565b6000819050919050565b62000254816200023f565b81146200026057600080fd5b50565b600081519050620002748162000249565b92915050565b62000285816200016f565b81146200029157600080fd5b50565b600081519050620002a5816200027a565b92915050565b600080600080600060a08688031215620002ca57620002c9620001f3565b5b6000620002da8882890162000228565b9550506020620002ed8882890162000263565b9450506040620003008882890162000294565b9350506060620003138882890162000294565b9250506080620003268882890162000228565b9150509295509295909350565b610dd780620003436000396000f3fe6080604052600436106100705760003560e01c8063974c86b51161004e578063974c86b5146100f657806398d5fdca14610114578063aa8c217c1461013f578063f26ea8c91461016a57610070565b8063519ee19e146100755780637ff9b596146100a05780638da5cb5b146100cb575b600080fd5b34801561008157600080fd5b5061008a610195565b604051610097919061081a565b60405180910390f35b3480156100ac57600080fd5b506100b561019b565b6040516100c2919061081a565b60405180910390f35b3480156100d757600080fd5b506100e06101a1565b6040516100ed9190610876565b60405180910390f35b6100fe6101c5565b60405161010b919061081a565b60405180910390f35b34801561012057600080fd5b5061012961073c565b604051610136919061081a565b60405180910390f35b34801561014b57600080fd5b506101546107d5565b604051610161919061081a565b60405180910390f35b34801561017657600080fd5b5061017f6107db565b60405161018c91906108f0565b60405180910390f35b60035481565b60045481565b60008054906101000a900473ffffffffffffffffffffffffffffffffffffffff1681565b60006003546064603c600160009054906101000a900473ffffffffffffffffffffffffffffffffffffffff1673ffffffffffffffffffffffffffffffffffffffff166318160ddd6040518163ffffffff1660e01b8152600401602060405180830381865afa15801561023b573d6000803e3d6000fd5b505050506040513d601f19601f8201168201806040525081019061025f919061093c565b6102699190610998565b6102739190610a09565b10156102b4576040517f08c379a00000000000000000000000000000000000000000000000000000000081526004016102ab90610a97565b60405180910390fd5b600034116102f7576040517f08c379a00000000000000000000000000000000000000000000000000000000081526004016102ee90610b03565b60405180910390fd5b60045461030261073c565b3461030d9190610998565b6103179190610a09565b600281905550600254600160009054906101000a900473ffffffffffffffffffffffffffffffffffffffff1673ffffffffffffffffffffffffffffffffffffffff166370a0823160008054906101000a900473ffffffffffffffffffffffffffffffffffffffff166040518263ffffffff1660e01b815260040161039b9190610876565b602060405180830381865afa1580156103b8573d6000803e3d6000fd5b505050506040513d601f19601f820116820180604052508101906103dc919061093c565b101561041d576040517f08c379a000000000000000000000000000000000000000000000000000000000815260040161041490610b95565b60405180910390fd5b600160009054906101000a900473ffffffffffffffffffffffffffffffffffffffff1673ffffffffffffffffffffffffffffffffffffffff1663095ea7b3306064603c600160009054906101000a900473ffffffffffffffffffffffffffffffffffffffff1673ffffffffffffffffffffffffffffffffffffffff166318160ddd6040518163ffffffff1660e01b8152600401602060405180830381865afa1580156104cd573d6000803e3d6000fd5b505050506040513d601f19601f820116820180604052508101906104f1919061093c565b6104fb9190610998565b6105059190610a09565b6040518363ffffffff1660e01b8152600401610522929190610bb5565b6020604051808303816000875af1158015610541573d6000803e3d6000fd5b505050506040513d601f19601f820116820180604052508101906105659190610c16565b50600160009054906101000a900473ffffffffffffffffffffffffffffffffffffffff1673ffffffffffffffffffffffffffffffffffffffff166323b872dd60008054906101000a900473ffffffffffffffffffffffffffffffffffffffff16336002546040518463ffffffff1660e01b81526004016105e793929190610c43565b6020604051808303816000875af1158015610606573d6000803e3d6000fd5b505050506040513d601f19601f8201168201806040525081019061062a9190610c16565b503373ffffffffffffffffffffffffffffffffffffffff1660008054906101000a900473ffffffffffffffffffffffffffffffffffffffff1673ffffffffffffffffffffffffffffffffffffffff167fae98fdb7f4bc601d31354dd8c8ba584bf892418c4df67aba01011867bd88ea276002546040516106aa919061081a565b60405180910390a3600254600360008282546106c69190610c7a565b9250508190555060008054906101000a900473ffffffffffffffffffffffffffffffffffffffff1673ffffffffffffffffffffffffffffffffffffffff166108fc349081150290604051600060405180830381858888f19350505050158015610733573d6000803e3d6000fd5b50600254905090565b600080732514895c72f50d8bd4b4f9b1110f0d6bd2c97526905060008173ffffffffffffffffffffffffffffffffffffffff1663feaf968c6040518163ffffffff1660e01b815260040160a060405180830381865afa1580156107a3573d6000803e3d6000fd5b505050506040513d601f19601f820116820180604052508101906107c79190610d26565b505050915050809250505090565b60025481565b600160009054906101000a900473ffffffffffffffffffffffffffffffffffffffff1681565b6000819050919050565b61081481610801565b82525050565b600060208201905061082f600083018461080b565b92915050565b600073ffffffffffffffffffffffffffffffffffffffff82169050919050565b600061086082610835565b9050919050565b61087081610855565b82525050565b600060208201905061088b6000830184610867565b92915050565b6000819050919050565b60006108b66108b16108ac84610835565b610891565b610835565b9050919050565b60006108c88261089b565b9050919050565b60006108da826108bd565b9050919050565b6108ea816108cf565b82525050565b600060208201905061090560008301846108e1565b92915050565b600080fd5b61091981610801565b811461092457600080fd5b50565b60008151905061093681610910565b92915050565b6000602082840312156109525761095161090b565b5b600061096084828501610927565b91505092915050565b7f4e487b7100000000000000000000000000000000000000000000000000000000600052601160045260246000fd5b60006109a382610801565b91506109ae83610801565b92508282026109bc81610801565b915082820484148315176109d3576109d2610969565b5b5092915050565b7f4e487b7100000000000000000000000000000000000000000000000000000000600052601260045260246000fd5b6000610a1482610801565b9150610a1f83610801565b925082610a2f57610a2e6109da565b5b828204905092915050565b600082825260208201905092915050565b7f7468652070726573616c652068617320656e6465640000000000000000000000600082015250565b6000610a81601583610a3a565b9150610a8c82610a4b565b602082019050919050565b60006020820190508181036000830152610ab081610a74565b9050919050565b7f506c6561736520656e7465722061206e6f6e207a65726f20616d6f756e740000600082015250565b6000610aed601e83610a3a565b9150610af882610ab7565b602082019050919050565b60006020820190508181036000830152610b1c81610ae0565b9050919050565b7f42616c616e636520696e20746f6b656e2077697468206f776e6572206973206e60008201527f6f7420656e6f7567680000000000000000000000000000000000000000000000602082015250565b6000610b7f602983610a3a565b9150610b8a82610b23565b604082019050919050565b60006020820190508181036000830152610bae81610b72565b9050919050565b6000604082019050610bca6000830185610867565b610bd7602083018461080b565b9392505050565b60008115159050919050565b610bf381610bde565b8114610bfe57600080fd5b50565b600081519050610c1081610bea565b92915050565b600060208284031215610c2c57610c2b61090b565b5b6000610c3a84828501610c01565b91505092915050565b6000606082019050610c586000830186610867565b610c656020830185610867565b610c72604083018461080b565b949350505050565b6000610c8582610801565b9150610c9083610801565b9250828201905080821115610ca857610ca7610969565b5b92915050565b600069ffffffffffffffffffff82169050919050565b610ccd81610cae565b8114610cd857600080fd5b50565b600081519050610cea81610cc4565b92915050565b6000819050919050565b610d0381610cf0565b8114610d0e57600080fd5b50565b600081519050610d2081610cfa565b92915050565b600080600080600060a08688031215610d4257610d4161090b565b5b6000610d5088828901610cdb565b9550506020610d6188828901610d11565b9450506040610d7288828901610927565b9350506060610d8388828901610927565b9250506080610d9488828901610cdb565b915050929550929590935056fea264697066735822122013b89da3093fe30bbabbf74221de22c674f04160adb01f2c787117c4ac32051e64736f6c63430008110033",
  "linkReferences": {},
  "deployedLinkReferences": {}
}